:020000040800F2
:1000000000500020257100081D70000825700008B0
:100010002D700008357000083D70000800000000D9
:100020000000000000000000000000004570000813
:1000300051700008000000005D7000086970000841
:100040006D7100086D7100086D7100086D71000818
:100050006D7100086D7100086D7100086D71000808
:100060006D7100086D7100086D7100086D710008F8
:100070006D710008757000086D7100086D710008E1
:10008000897000086D7100086D7100086D710008BD
:100090006D7100086D7100086D7100086D710008C8
:1000A0006D7100086D7100086D7100086D710008B8
:1000B0009D7000086D7100086D7100086D71000879
:1000C0006D7100086D7100086D7100086D71000898
:1000D0006D7100086D710008315F00086D710008D6
:1000E000B17000086D7100086D710008000000001B
:1000F0000000000000000000000000000000000000
:0C01000000000000000000005FF808F1A3
:1001100010B5054C237833B9044B13B10448AFF341
:1001200000800123237010BD780000200000000033
:10013000CCB0000808B5034B1BB103490348AFF32B
:10014000008008BD000000007C000020CCB000084A
:1001500081F0004102E000BF83F0004330B54FEA78
:1001600041044FEA430594EA050F08BF90EA020FE5
:100170001FBF54EA000C55EA020C7FEA645C7FEA78
:10018000655C00F0E2804FEA5454D4EB5555B8BF9B
:100190006D420CDD2C4480EA020281EA030382EA0C
:1001A000000083EA010180EA020281EA0303362D9E
:1001B00088BF30BD11F0004F4FEA01314FF4801C71
:1001C0004CEA113102D0404261EB410113F0004F83
:1001D0004FEA03334CEA133302D0524263EB43033A
:1001E00094EA050F00F0A780A4F10104D5F1200ED8
:1001F0000DDB02FA0EFC22FA05F2801841F1000133
:1002000003FA0EF2801843FA05F359410EE0A5F106
:1002100020050EF1200E012A03FA0EFC28BF4CF037
:10022000020C43FA05F3C01851EBE37101F00045ED
:1002300007D54FF0000EDCF1000C7EEB00006EEBFA
:100240000101B1F5801F1BD3B1F5001F0CD3490884
:100250005FEA30004FEA3C0C04F101044FEA4452DB
:1002600012F5800F80F09A80BCF1004F08BF5FEA62
:10027000500C50F1000041EB045141EA050130BD42
:100280005FEA4C0C404141EB0101013C28BFB1F554
:10029000801FE9D291F0000F04BF01460020B1FA9F
:1002A00081F308BF2033A3F10B03B3F120020CDA72
:1002B0000C3208DD02F1140CC2F10C0201FA0CF050
:1002C00021FA02F10CE002F11402D8BFC2F1200CB5
:1002D00001FA02F120FA0CFCDCBF41EA0C0190406B
:1002E000E41AA2BF01EB0451294330BD6FEA0404B4
:1002F0001F3C1CDA0C340EDC04F11404C4F120029F
:1003000020FA04F001FA02F340EA030021FA04F3B0
:1003100045EA030130BDC4F10C04C4F1200220FA07
:1003200002F001FA04F340EA0300294630BD21FA45
:1003300004F0294630BD94F0000F83F4801306BF0B
:1003400081F480110134013D4EE77FEA645C18BFFF
:100350007FEA655C29D094EA050F08BF90EA020F96
:1003600005D054EA000C04BF1946104630BD91EA8E
:10037000030F1EBF0021002030BD5FEA545C05D191
:100380004000494128BF41F0004130BD14F58004D0
:100390003CBF01F5801130BD01F0004545F0FE4144
:1003A00041F470014FF0000030BD7FEA645C1ABF79
:1003B000194610467FEA655C1CBF0B46024650EAB0
:1003C000013406BF52EA033591EA030F41F40021DC
:1003D00030BD00BF90F0000F04BF0021704730B562
:1003E0004FF4806404F132044FF000054FF0000137
:1003F00050E700BF90F0000F04BF0021704730B5F8
:100400004FF4806404F1320410F0004548BF4042CC
:100410004FF000013EE700BF42004FEAE2014FEA21
:1004200031014FEA02701FBF12F07F4393F07F4FFC
:1004300081F06051704732F07F4208BF704793F0FF
:100440007F4F04BF41F40021704730B54FF4607412
:1004500001F0004521F000411CE700BF50EA010215
:1004600008BF704730B54FF000050AE050EA0102BE
:1004700008BF704730B511F0004502D5404261EB2E
:1004800041014FF4806404F132045FEA915C3FF46F
:10049000D8AE4FF003025FEADC0C18BF03325FEA0C
:1004A000DC0C18BF033202EBDC02C2F1200300FABD
:1004B00003FC20FA02F001FA03FE40EA0E0021FAE2
:1004C00002F11444BDE600BF70B54FF0FF0C4CF4D0
:1004D000E06C1CEA11541DBF1CEA135594EA0C0F82
:1004E00095EA0C0F00F0DEF82C4481EA030621EABD
:1004F0004C5123EA4C5350EA013518BF52EA0335F8
:1005000041F4801143F4801338D0A0FB02CE4FF0A9
:100510000005E1FB02E506F00042E0FB03E54FF0D9
:100520000006E1FB03569CF0000F18BF4EF0010ED1
:10053000A4F1FF04B6F5007F64F5407404D25FEACD
:100540004E0E6D4146EB060642EAC62141EA555180
:100550004FEAC52040EA5E504FEACE2EB4F1FD0CC2
:1005600088BFBCF5E06F1ED8BEF1004F08BF5FEA40
:10057000500E50F1000041EB045170BD06F00046F2
:1005800046EA010140EA020081EA0301B4EB5C049F
:10059000C2BFD4EB0C0541EA045170BD41F4801197
:1005A0004FF0000E013C00F3AB8014F1360FDEBFBC
:1005B000002001F0004170BDC4F10004203C35DA98
:1005C0000C341BDC04F11404C4F1200500FA05F31B
:1005D00020FA04F001FA05F240EA020001F00042BC
:1005E00021F0004110EBD37021FA04F642EB060132
:1005F0005EEA430E08BF20EAD37070BDC4F10C045C
:10060000C4F1200500FA04F320FA05F001FA04F21F
:1006100040EA020001F0004110EBD37041F100010B
:100620005EEA430E08BF20EAD37070BDC4F1200516
:1006300000FA05F24EEA020E20FA04F301FA05F27E
:1006400043EA020321FA04F001F0004121FA04F226
:1006500020EA020000EBD3705EEA430E08BF20EAF6
:10066000D37070BD94F0000F0FD101F00046400030
:1006700041EB010111F4801F08BF013CF7D041EAB2
:10068000060195F0000F18BF704703F000465200B6
:1006900043EB030313F4801F08BF013DF7D043EA87
:1006A0000603704794EA0C0F0CEA135518BF95EA3D
:1006B0000C0F0CD050EA410618BF52EA4306D1D1C4
:1006C00081EA030101F000414FF0000070BD50EAE3
:1006D000410606BF1046194652EA430619D094EA6D
:1006E0000C0F02D150EA013613D195EA0C0F05D157
:1006F00052EA03361CBF104619460AD181EA0301AB
:1007000001F0004141F0FE4141F470014FF0000062
:1007100070BD41F0FE4141F4780170BD70B54FF0FD
:10072000FF0C4CF4E06C1CEA11541DBF1CEA13557D
:1007300094EA0C0F95EA0C0F00F0A7F8A4EB05045F
:1007400081EA030E52EA03354FEA013100F0888056
:100750004FEA03334FF0805545EA131343EA12631F
:100760004FEA022245EA111545EA10654FEA0026D4
:100770000EF000419D4208BF964244F1FD0404F58D
:10078000407402D25B084FEA3202B61A65EB0305E9
:100790005B084FEA32024FF480104FF4002CB6EBA6
:1007A000020E75EB030E22BFB61A754640EA0C0026
:1007B0005B084FEA3202B6EB020E75EB030E22BF66
:1007C000B61A754640EA5C005B084FEA3202B6EBA7
:1007D000020E75EB030E22BFB61A754640EA9C0066
:1007E0005B084FEA3202B6EB020E75EB030E22BF36
:1007F000B61A754640EADC0055EA060E18D04FEAF4
:10080000051545EA16754FEA06164FEAC30343EA93
:1008100052734FEAC2025FEA1C1CC0D111F4801F60
:100820000BD141EA00014FF000004FF0004CB6E759
:1008300011F4801F04BF01430020B4F1FD0C88BFF8
:10084000BCF5E06F3FF6AFAEB5EB030C04BFB6EB03
:10085000020C5FEA500C50F1000041EB045170BDF6
:100860000EF0004E4EEA113114EB5C04C2BFD4EB23
:100870000C0541EA045170BD41F480114FF0000EA7
:10088000013C90E645EA060E8DE60CEA135594EA23
:100890000C0F08BF95EA0C0F3FF43BAF94EA0C0F26
:1008A0000AD150EA01347FF434AF95EA0C0F7FF49B
:1008B00025AF104619462CE795EA0C0F06D152EAEF
:1008C00003353FF4FDAE1046194622E750EA4106D3
:1008D00018BF52EA43067FF4C5AE50EA41047FF4E4
:1008E0000DAF52EA43057FF4EBAE12E74FEA410247
:1008F000B2F1E04324BFB3F5001CDCF1FE5C0DD97E
:1009000001F0004C4FEAC0024CEA5070B2F1004FC7
:1009100040EB830008BF20F00100704711F0804FCA
:1009200021D113F13872BCBF01F00040704741F48F
:1009300080114FEA5252C2F11802C2F1200C10FA93
:100940000CF320FA02F018BF40F001004FEAC12377
:100950004FEAD32303FA0CFC40EA0C0023FA02F31B
:100960004FEA4303CCE77FEA625307D150EA0133F1
:100970001EBF4FF0FE4040F44000704701F00040C1
:1009800040F0FE4040F40000704700BF80F000409F
:1009900002E000BF81F0004142001FBF5FEA410357
:1009A00092EA030F7FEA226C7FEA236C6AD04FEA57
:1009B0001262D2EB1363C1BFD2184140484041409C
:1009C000B8BF5B42192B88BF704710F0004F40F44E
:1009D000000020F07F4018BF404211F0004F41F46A
:1009E000000121F07F4118BF494292EA030F3FD036
:1009F000A2F1010241FA03FC10EB0C00C3F1200349
:100A000001FA03F100F0004302D5494260EB4000D7
:100A1000B0F5000F13D3B0F1807F06D340084FEA42
:100A2000310102F10102FE2A51D2B1F1004F40EB37
:100A3000C25008BF20F0010040EA0300704749009F
:100A400040EB0000013A28BFB0F5000FEDD2B0FA3C
:100A500080FCACF1080CB2EB0C0200FA0CF0AABF5F
:100A600000EBC25052421843BCBFD04018437047FD
:100A700092F0000F81F4000106BF80F40000013203
:100A8000013BB5E74FEA41037FEA226C18BF7FEADA
:100A9000236C21D092EA030F04D092F0000F08BF1C
:100AA0000846704790EA010F1CBF0020704712F003
:100AB0007F4F04D1400028BF40F00040704712F142
:100AC00000723CBF00F50000704700F0004343F0A7
:100AD000FE4040F4000070477FEA226216BF0846DD
:100AE0007FEA23630146420206BF5FEA412390EAA0
:100AF000010F40F4800070474FF0000304E000BF96
:100B000010F0004348BF40425FEA000C08BF704746
:100B100043F0964301464FF000001CE050EA01020A
:100B200008BF70474FF000030AE000BF50EA01021F
:100B300008BF704711F0004302D5404261EB41010C
:100B40005FEA010C02BF84460146002043F0B64331
:100B500008BFA3F18053A3F50003BCFA8CF2083A56
:100B6000A3EBC25310DB01FA02FC634400FA02FC5F
:100B7000C2F12002BCF1004F20FA02F243EB020066
:100B800008BF20F00100704702F1200201FA02FCC8
:100B9000C2F1200250EA4C0021FA02F243EB0200BB
:100BA00008BF20EADC7070474FF0FF0C1CEAD052FF
:100BB0001EBF1CEAD15392EA0C0F93EA0C0F6FD0C0
:100BC0001A4480EA010C400218BF5FEA41211ED09E
:100BD0004FF0006343EA501043EA5111A0FB01318A
:100BE0000CF00040B1F5000F3EBF490041EAD3715F
:100BF0005B0040EA010062F17F02FD2A1DD8B3F1DB
:100C0000004F40EBC25008BF20F00100704790F049
:100C1000000F0CF0004C08BF49024CEA502040EA9B
:100C200051207F3AC2BFD2F1FF0340EAC250704761
:100C300040F400004FF00003013A5DDC12F1190F9F
:100C4000DCBF00F000407047C2F10002410021FA11
:100C500002F1C2F1200200FA02FC5FEA310040F129
:100C6000000053EA4C0308BF20EADC70704792F0A2
:100C7000000F00F0004C02BF400010F4000F013ADA
:100C8000F9D040EA0C0093F0000F01F0004C02BFD5
:100C9000490011F4000F013BF9D041EA0C018FE744
:100CA0000CEAD15392EA0C0F18BF93EA0C0F0AD04A
:100CB00030F0004C18BF31F0004CD8D180EA010070
:100CC00000F00040704790F0000F17BF90F0004F09
:100CD000084691F0000F91F0004F14D092EA0C0FEB
:100CE00001D142020FD193EA0C0F03D14B0218BF7E
:100CF000084608D180EA010000F0004040F0FE40C4
:100D000040F40000704740F0FE4040F4400070475F
:100D10004FF0FF0C1CEAD0521EBF1CEAD15392EADE
:100D20000C0F93EA0C0F69D0A2EB030280EA010CCE
:100D300049024FEA402037D04FF0805343EA111167
:100D400043EA10130CF000408B4238BF5B0042F1C5
:100D50007D024FF4000C8B4224BF5B1A40EA0C006A
:100D6000B3EB510F24BFA3EB510340EA5C00B3EB9C
:100D7000910F24BFA3EB910340EA9C00B3EBD10F8A
:100D800024BFA3EBD10340EADC001B0118BF5FEADC
:100D90001C1CE0D1FD2A3FF650AF8B4240EBC25005
:100DA00008BF20F0010070470CF0004C4CEA5020C6
:100DB0007F32C2BFD2F1FF0340EAC250704740F415
:100DC00000004FF00003013A37E792F0000F00F007
:100DD000004C02BF400010F4000F013AF9D040EA85
:100DE0000C0093F0000F01F0004C02BF490011F419
:100DF000000F013BF9D041EA0C0195E70CEAD15311
:100E000092EA0C0F08D142027FF47DAF93EA0C0FF7
:100E10007FF470AF084676E793EA0C0F04D14B02DB
:100E20003FF44CAF08466EE730F0004C18BF31F08D
:100E3000004CCAD130F000427FF45CAF31F0004387
:100E40007FF43CAF5FE700BF42000ED2B2F1FE4F2D
:100E50000BD34FF09E03B3EB126209D44FEA002389
:100E600043F0004323FA02F070474FF00000704750
:100E700012F1610F01D1420202D14FF0FF307047F1
:100E80004FF00000704700BF034613F8012B002A03
:100E9000FBD1181A0138704780B400AF00BFBD46BF
:100EA00080BC704780B582B000AF78607B68002B53
:100EB00001D1012376E07B685B6A002B08D17B6857
:100EC0005B68B3F5827F09D07B680022DA6105E0B8
:100ED0007B6800221A617B6800225A617B680022CD
:100EE0009A627B6893F85130DBB2002B06D17B68A5
:100EF000002283F85020786805F0CAFE7B68022241
:100F000083F851207B681B681A687B681B6822F095
:100F100040021A607B685B6803F482727B689B689E
:100F200003F404431A437B68DB6803F400631A4349
:100F30007B681B6903F002031A437B685B6903F05B
:100F400001031A437B689B6903F400731A437B68AF
:100F5000DB6903F038031A437B681B6A03F08003E4
:100F600042EA03017B689B6A03F400527B681B68BA
:100F70000A431A607B689B691A0C7B681B6802F045
:100F800004025A607B681B68DA697B681B6822F47C
:100F90000062DA617B6800225A657B68012283F86F
:100FA0005120002318460837BD4680BD80B588B063
:100FB00000AFF860B9603B601346FB8000F060FD55
:100FC000F861FB887B83FB6893F85130DBB2012B1F
:100FD00001D002232AE1BB68002B02D0FB88002B42
:100FE00001D1012322E1FB6893F85030012B01D19C
:100FF00002231BE1FB68012283F85020FB680322D7
:1010000083F85120FB6800225A65FB68BA681A63AE
:10101000FB68FA889A86FB68FA88DA86FB68002201
:101020009A63FB6800229A87FB680022DA87FB68D4
:1010300000225A64FB6800221A64FB689B68B3F5BF
:10104000004F0FD1FB681B681A68FB681B6822F011
:1010500040021A60FB681B681A68FB681B6842F450
:1010600080421A60FB681B681B6803F04003402B3A
:1010700007D0FB681B681A68FB681B6842F04002D7
:101080001A60FB68DB68B3F5006F52D1FB685B68E0
:10109000002B02D07B8B012B45D1FB681B6B1A8880
:1010A000FB681B68DA60FB681B6B9A1CFB681A63A1
:1010B000FB68DB8E9BB2013B9AB2FB68DA8632E0BA
:1010C000FB681B689B6803F00203022B12D1FB68CC
:1010D0001B6B1A88FB681B68DA60FB681B6B9A1C29
:1010E000FB681A63FB68DB8E9BB2013B9AB2FB681C
:1010F000DA8618E000F0C4FC0246FB69D31A3A68AD
:101100009A4203D83B68B3F1FF3F02D13B68002B02
:1011100009D1FB68012283F85120FB68002283F883
:101120005020032382E0FB68DB8E9BB2002BC7D1EB
:1011300053E0FB685B68002B02D07B8B012B47D10F
:10114000FB681A6BFB681B680C3312781A70FB681B
:101150001B6B5A1CFB681A63FB68DB8E9BB2013B5E
:101160009AB2FB68DA8633E0FB681B689B6803F081
:101170000203022B13D1FB681A6BFB681B680C334C
:1011800012781A70FB681B6B5A1CFB681A63FB68A9
:10119000DB8E9BB2013B9AB2FB68DA8618E000F066
:1011A0006FFC0246FB69D31A3A689A4203D83B683F
:1011B000B3F1FF3F02D13B68002B09D1FB6801224C
:1011C00083F85120FB68002283F8502003232DE090
:1011D000FB68DB8E9BB2002BC6D1FA693968F868D0
:1011E00000F0C4FB0346002B02D0FB6820225A65A6
:1011F000FB689B68002B0AD100237B61FB681B689E
:10120000DB687B61FB681B689B687B617B69FB68B3
:10121000012283F85120FB68002283F85020FB68EC
:101220005B6D002B01D0012300E00023184620371E
:10123000BD4680BD80B588B002AFF860B9603B6044
:101240001346FB80FB6893F85130DBB2012B01D0D1
:10125000022304E1FB685B68B3F5827F12D1FB686F
:101260009B68002B0ED1FB68042283F85120FA887A
:101270003B6800931346BA68B968F86800F0F3F861
:101280000346ECE000F0FCFB7861BB68002B02D069
:10129000FB88002B01D10123E1E0FB6893F850307B
:1012A000012B01D10223DAE0FB68012283F85020F0
:1012B000FB68042283F85120FB6800225A65FB6812
:1012C000BA689A63FB68FA889A87FB68FA88DA87B3
:1012D000FB6800221A63FB6800229A86FB680022E2
:1012E000DA86FB6800221A64FB6800225A64FB68F5
:1012F0009B68B3F5004F0FD1FB681B681A68FB6849
:101300001B6822F040021A60FB681B681A68FB68C1
:101310001B6822F480421A60FB681B681B6803F09C
:101320004003402B07D0FB681B681A68FB681B68EA
:1013300042F040021A60FB68DB68002B70D135E098
:10134000FB681B689B6803F00103012B15D1FB6848
:101350001B6803F10C02FB689B6B1278D2B21A7007
:10136000FB689B6B5A1CFB689A63FB68DB8F9BB224
:10137000013B9AB2FB68DA8718E000F081FB024675
:101380007B69D31A3A689A4203D83B68B3F1FF3FAE
:1013900002D13B68002B09D1FB68012283F8512060
:1013A000FB68002283F85020032358E0FB68DB8FA2
:1013B0009BB2002BC4D138E0FB681B689B6803F02C
:1013C0000103012B13D1FB681B68DA68FB689B6B78
:1013D00092B21A80FB689B6B9A1CFB689A63FB684D
:1013E000DB8F9BB2013B9AB2FB68DA8718E000F012
:1013F00047FB02467B69D31A3A689A4203D83B6896
:10140000B3F1FF3F02D13B68002B09D1FB680122F9
:1014100083F85120FB68002283F8502003231EE04C
:10142000FB68DB8F9BB2002BC6D17A693968F868FC
:1014300000F04AFA0346002B02D0FB6820225A65CE
:10144000FB68012283F85120FB68002283F85020BA
:10145000FB685B6D002B01D0012300E000231846E0
:101460001837BD4680BD80B58AB000AFF860B9605E
:101470007A607B8001237B6200F002FB3862FB68AC
:1014800093F85130FB77FB685B68BB617B88FB821C
:10149000FB7F012B0CD0BB69B3F5827F06D1FB68C3
:1014A0009B68002B02D1FB7F042B01D002237FE13C
:1014B000BB68002B05D07B68002B02D07B88002BFB
:1014C00001D1012374E1FB6893F85030012B01D165
:1014D00002236DE1FB68012283F85020FB6893F83A
:1014E0005130DBB2042B03D0FB68052283F8512076
:1014F000FB6800225A65FB687A689A63FB687A8801
:10150000DA87FB687A889A87FB68BA681A63FB688F
:101510007A88DA86FB687A889A86FB6800221A64E1
:10152000FB6800225A64FB681B681B6803F04003D9
:10153000402B07D0FB681B681A68FB681B6842F0E9
:1015400040021A60FB68DB68B3F5006F7ED1FB6870
:101550005B68002B02D0FB8A012B6CD1FB681B6BF4
:101560001A88FB681B68DA60FB681B6B9A1CFB68B7
:101570001A63FB68DB8E9BB2013B9AB2FB68DA868A
:1015800059E0FB681B689B6803F00203022B1BD128
:10159000FB68DB8E9BB2002B16D07B6A012B13D12C
:1015A000FB681B6B1A88FB681B68DA60FB681B6BA7
:1015B0009A1CFB681A63FB68DB8E9BB2013B9AB2F4
:1015C000FB68DA8600237B62FB681B689B6803F07C
:1015D0000103012B19D1FB68DB8F9BB2002B14D0C8
:1015E000FB681B68DA68FB689B6B92B21A80FB6829
:1015F0009B6B9A1CFB689A63FB68DB8F9BB2013B79
:101600009AB2FB68DA8701237B6200F039FA02465E
:101610003B6AD31A3A6B9A420DD83B6BB3F1FF3F4A
:1016200009D0FB68012283F85120FB68002283F86F
:1016300050200323BCE0FB68DB8E9BB2002BA0D1C3
:10164000FB68DB8F9BB2002B9BD182E0FB685B6861
:10165000002B02D0FB8A012B71D1FB681A6BFB684F
:101660001B680C3312781A70FB681B6B5A1CFB68E2
:101670001A63FB68DB8E9BB2013B9AB2FB68DA8689
:101680005DE0FB681B689B6803F00203022B1CD122
:10169000FB68DB8E9BB2002B17D07B6A012B14D129
:1016A000FB681A6BFB681B680C3312781A70FB68B6
:1016B0001B6B5A1CFB681A63FB68DB8E9BB2013BF9
:1016C0009AB2FB68DA8600237B62FB681B689B6822
:1016D00003F00103012B19D1FB68DB8F9BB2002BB8
:1016E00014D0FB681B68DA68FB689B6BD2B21A7077
:1016F000FB689B6B5A1CFB689A63FB68DB8F9BB291
:10170000013B9AB2FB68DA8701237B6200F0B8F9EB
:1017100002463B6AD31A3A6B9A4203D83B6BB3F149
:10172000FF3F02D13B6B002B09D1FB68012283F8FC
:101730005120FB68002283F85020032338E0FB6827
:10174000DB8E9BB2002B9CD1FB68DB8F9BB2002B06
:1017500097D13A6A396BF86800F008F90346002B14
:1017600008D0FB6820225A65FB68002283F85020CD
:1017700001231DE0FB689B68002B0AD100233B611D
:10178000FB681B68DB683B61FB681B689B683B610F
:101790003B69FB68012283F85120FB68002283F833
:1017A0005020FB685B6D002B01D0012300E000237B
:1017B00018462837BD4680BD80B588B000AFF860B8
:1017C000B9603B601346FB7100F05AF90246BB6AF0
:1017D0009B1A3A681344FB6100F052F9B861394B27
:1017E0001B685B011B0DFA6902FB03F37B6154E08C
:1017F0003B68B3F1FF3F50D000F042F90246BB69AD
:10180000D31AFA699A4202D9FB69002B3DD1FB68D1
:101810001B685A68FB681B6822F0E0025A60FB688C
:101820005B68B3F5827F11D1FB689B68B3F5004F0D
:1018300004D0FB689B68B3F5806F07D1FB681B6819
:101840001A68FB681B6822F040021A60FB689B6AFA
:10185000B3F5005F0FD1FB681B681A68FB681B6853
:1018600022F400521A60FB681B681A68FB681B6848
:1018700042F400521A60FB68012283F85120FB6891
:10188000002283F85020032317E07B69002B01D14D
:101890000023FB617B69013B7B61FB681B689A68E5
:1018A000BB681340BA689A420CBF01230023DBB225
:1018B0001A46FB799A429BD1002318462037BD4631
:1018C00080BD00BF0000002080B586B002AFF86088
:1018D000B9607A60FB685B68B3F5827F11D1FB6801
:1018E0009B68B3F5004F04D0FB689B68B3F5806F2D
:1018F00007D1FB681B681A68FB681B6822F040026E
:101900001A60FB685B68B3F5827F17D1FB689B6840
:10191000B3F5806F12D17B680093BB680022012170
:10192000F868FFF749FF0346002B1AD0FB685B6D90
:1019300043F02002FB685A65032313E07B680093A1
:10194000BB6800228021F868FFF736FF0346002BB2
:1019500007D0FB685B6D43F02002FB685A650323E8
:1019600000E0002318461037BD4680BD80B586B024
:1019700002AFF860B9607A607B680093BB680122AF
:101980000221F868FFF718FF0346002B07D0FB6819
:101990005B6D43F02002FB685A65032313E07B680C
:1019A0000093BB6800228021F868FFF705FF03461B
:1019B000002B07D0FB685B6D43F02002FB685A6583
:1019C000032300E0002318461037BD4680BD000009
:1019D00080B500AF084B1B68074A43F01003136043
:1019E000032001F0B7F90F2000F008F805F068FBBC
:1019F0000023184680BD00BF0020024080B582B0A1
:101A000000AF7860124B1A68124B1B7819464FF4DE
:101A10007A73B3FBF1F3B2FBF3F3184601F0CFF99D
:101A20000346002B01D001230EE07B680F2B0AD860
:101A3000002279684FF0FF3001F097F9064A7B6881
:101A40001360002300E0012318460837BD4680BD1F
:101A500000000020080000200400002080B400AF37
:101A6000054B1B781A46054B1B681344034A136049
:101A700000BFBD4680BC70470800002094000020D5
:101A800080B400AF024B1B681846BD4680BC70474F
:101A90009400002080B584B000AF7860FFF7F0FFBD
:101AA000B8607B68FB60FB68B3F1FF3F05D00A4B71
:101AB0001B781A46FB681344FB6000BFFFF7E0FF8A
:101AC0000246BB68D31AFA689A42F7D800BF00BF33
:101AD0001037BD4680BD00BF0800002080B586B02D
:101AE00000AF78607B68002B01D1012372E27B6834
:101AF0001B6803F00103002B00F08780924B5B68AA
:101B000003F00C03042B0CD08F4B5B6803F00C0329
:101B1000082B12D18C4B5B6803F48033B3F5803F04
:101B20000BD1894B1B6803F40033002B6CD07B680E
:101B30005B68002B68D101234CE27B685B68B3F5DE
:101B4000803F06D1804B1B687F4A43F4803313608B
:101B50002EE07B685B68002B0CD17B4B1B687A4ABC
:101B600023F480331360784B1B68774A23F4802377
:101B700013601DE07B685B68B3F5A02F0CD1724B3E
:101B80001B68714A43F4802313606F4B1B686E4AD5
:101B900043F4803313600BE06B4B1B686A4A23F4F9
:101BA00080331360684B1B68674A23F480231360FB
:101BB0007B685B68002B13D0FFF762FF386108E099
:101BC000FFF75EFF02463B69D31A642B01D903235A
:101BD00000E25D4B1B6803F40033002BF0D014E0EF
:101BE000FFF74EFF386108E0FFF74AFF02463B6906
:101BF000D31A642B01D90323ECE1534B1B6803F484
:101C00000033002BF0D100E000BF7B681B6803F0BD
:101C10000203002B63D04C4B5B6803F00C03002BDA
:101C20000BD0494B5B6803F00C03082B1CD1464BCF
:101C30005B6803F48033002B16D1434B1B6803F021
:101C40000203002B05D07B681B69012B01D0012307
:101C5000C0E13D4B1B6823F0F8027B685B69DB0049
:101C6000394913430B603AE07B681B69002B20D095
:101C7000364B01221A60FFF703FF386108E0FFF7D7
:101C8000FFFE02463B69D31A022B01D90323A1E1CF
:101C90002D4B1B6803F00203002BF0D02A4B1B686E
:101CA00023F0F8027B685B69DB00274913430B6074
:101CB00015E0264B00221A60FFF7E2FE386108E0CB
:101CC000FFF7DEFE02463B69D31A022B01D903233C
:101CD00080E11D4B1B6803F00203002BF0D17B68F1
:101CE0001B6803F00803002B3AD07B689B69002B2C
:101CF00019D0174B01221A60FFF7C2FE386108E0C5
:101D0000FFF7BEFE02463B69D31A022B01D903231B
:101D100060E10D4B5B6A03F00203002BF0D0012061
:101D200000F0CEFA1CE00A4B00221A60FFF7A8FE72
:101D300038610FE0FFF7A4FE02463B69D31A022B7D
:101D400008D9032346E100BF0010024000004242D0
:101D500080044242924B5B6A03F00203002BE9D1FC
:101D60007B681B6803F00403002B00F0A6800023AF
:101D7000FB758B4BDB6903F08053002B0DD1884B37
:101D8000DB69874A43F08053D361854BDB6903F0FD
:101D90008053BB60BB680123FB75824B1B6803F457
:101DA0008073002B18D17F4B1B687E4A43F48073ED
:101DB0001360FFF765FE386108E0FFF761FE024639
:101DC0003B69D31A642B01D9032303E1754B1B68CC
:101DD00003F48073002BF0D07B68DB68012B06D105
:101DE0006F4B1B6A6E4A43F0010313622DE07B6860
:101DF000DB68002B0CD16A4B1B6A694A23F0010394
:101E00001362674B1B6A664A23F0040313621CE0EB
:101E10007B68DB68052B0CD1614B1B6A604A43F081
:101E2000040313625E4B1B6A5D4A43F001031362B5
:101E30000BE05B4B1B6A5A4A23F001031362584BB9
:101E40001B6A574A23F0040313627B68DB68002B8C
:101E500015D0FFF715FE38610AE0FFF711FE0246C4
:101E60003B69D31A41F28832934201D90323B1E08E
:101E70004B4B1B6A03F00203002BEED014E0FFF77C
:101E8000FFFD38610AE0FFF7FBFD02463B69D31A0C
:101E900041F28832934201D903239BE0404B1B6AF5
:101EA00003F00203002BEED1FB7D012B05D13C4B4F
:101EB000DB693B4A23F08053D3617B68DB69002BED
:101EC00000F08780364B5B6803F00C03082B61D071
:101ED0007B68DB69022B46D1334B00221A60FFF787
:101EE000CFFD386108E0FFF7CBFD02463B69D31A0E
:101EF000022B01D903236DE0294B1B6803F000730B
:101F0000002BF0D17B681B6AB3F5803F08D1244BCE
:101F10005B6823F400327B689B68214913434B6064
:101F20001F4B5B6823F474127B68196A7B685B6AD9
:101F30000B431B4913434B601B4B01221A60FFF7F5
:101F40009FFD386108E0FFF79BFD02463B69D31A0D
:101F5000022B01D903233DE0114B1B6803F00073F2
:101F6000002BF0D035E0104B00221A60FFF788FDFF
:101F7000386108E0FFF784FD02463B69D31A022B63
:101F800001D9032326E0064B1B6803F00073002BE6
:101F9000F0D11EE07B68DB69012B07D1012319E03A
:101FA0000010024000700040600042420B4B5B6832
:101FB000FB60FB6803F480327B681B6A9A4206D19F
:101FC000FB6803F470127B685B6A9A4201D00123BC
:101FD00000E0002318461837BD4680BD00100240BF
:101FE00080B584B000AF786039607B68002B01D188
:101FF0000123D0E06A4B1B6803F007033A689A425A
:1020000010D9674B1B6823F0070265493B681343EF
:102010000B60634B1B6803F007033A689A4201D0D8
:102020000123B8E07B681B6803F00203002B20D07B
:102030007B681B6803F00403002B05D0594B5B68D9
:10204000584A43F4E06353607B681B6803F008035D
:10205000002B05D0534B5B68524A43F460535360E6
:10206000504B5B6823F0F0027B689B684D4913433B
:102070004B607B681B6803F00103002B40D07B683A
:102080005B68012B07D1474B1B6803F40033002B1F
:1020900015D101237FE07B685B68022B07D1414BA0
:1020A0001B6803F00073002B09D1012373E03D4B43
:1020B0001B6803F00203002B01D101236BE0394BB5
:1020C0005B6823F003027B685B68364913434B600F
:1020D000FFF7D6FCF8600AE0FFF7D2FC0246FB6887
:1020E000D31A41F28832934201D9032353E02D4B96
:1020F0005B6803F00C027B685B689B009A42EBD143
:10210000274B1B6803F007033A689A4210D2244B0E
:102110001B6823F0070222493B6813430B60204BE6
:102120001B6803F007033A689A4201D0012332E0AA
:102130007B681B6803F00403002B08D0194B5B6815
:1021400023F4E0627B68DB68164913434B607B68CD
:102150001B6803F00803002B09D0124B5B6823F4C3
:1021600060527B681B69DB000E4913434B6000F033
:1021700021F802460B4B5B681B0903F00F030A4969
:10218000CB5C22FA03F3094A1360094B1B6818461B
:10219000FFF734FC002318461037BD4680BD00BF52
:1021A000002002400010024078B800080000002023
:1021B0000400002080B487B000AF0023FB60002340
:1021C000BB6000237B6100237B6000233B611E4BCF
:1021D0005B68FB60FB6803F00C03042B02D0082B48
:1021E00003D027E0194B3B6127E0FB689B0C03F011
:1021F0000F03174AD35C7B60FB6803F48033002B2A
:1022000010D0114B5B685B0C03F00103114AD35CE7
:10221000BB607B680D4A03FB02F2BB68B2FBF3F3C1
:102220007B6104E07B680C4A02FB03F37B617B6902
:102230003B6102E0054B3B6100BF3B6918461C3720
:10224000BD4680BC704700BF0010024000127A00FB
:1022500090B80008A0B8000800093D0080B400AFA5
:10226000024B1B681846BD4680BC7047000000202A
:1022700080B500AFFFF7F2FF0246054B5B681B0A13
:1022800003F007030349CB5C22FA03F3184680BD31
:102290000010024088B8000880B500AFFFF7DEFFED
:1022A0000246054B5B68DB0A03F007030349CB5C7E
:1022B00022FA03F3184680BD0010024088B80008D7
:1022C00080B485B000AF78600A4B1B680A4AA2FB55
:1022D00003235B0A7A6802FB03F3FB6000BFFB6821
:1022E0005A1EFA60002BF9D100BF00BF1437BD465B
:1022F00080BC704700000020D34D621080B48BB0CA
:1023000000AF7860396000237B6200233B6269E1A3
:1023100001227B6A02FA03F3FB613B681B68FA69DE
:102320001340BB61BA69FB699A4240F058813B682F
:102330005B689A4A93425ED0984A934275D8984A0D
:10234000934258D0964A93426FD8964A934252D0BD
:10235000944A934269D8944A93424CD0924A934209
:1023600063D8924A934246D0904A93425DD8122B4A
:102370002AD8122B59D801A252F823F0F7230008CB
:10238000D1230008E3230008252400082B2400089B
:102390002B2400082B2400082B2400082B240008E1
:1023A0002B2400082B2400082B2400082B240008D1
:1023B0002B2400082B2400082B2400082B240008C1
:1023C000D9230008ED230008794A934213D02CE06A
:1023D0003B68DB683B6229E03B68DB6804333B62B7
:1023E00024E03B68DB6808333B621FE03B68DB6846
:1023F0000C333B621AE03B689B68002B02D104233C
:102400003B6213E03B689B68012B05D108233B62CC
:102410007B68FA691A6109E008233B627B68FA6904
:102420005A6103E000233B6200E000BFBB69FF2B61
:1024300001D87B6801E07B6804337B61BB69FF2BBB
:1024400002D87B6A9B0002E07B6A083B9B003B61F1
:102450007B691A680F213B6901FA03F3DB431A40D9
:10246000396A3B6901FA03F31A437B691A603B68D6
:102470005B6803F08053002B00F0B1804D4B9B69EB
:102480004C4A43F0010393614A4B9B6903F00103FB
:10249000BB60BB68484A7B6A9B08023352F8233012
:1024A000FB607B6A03F003039B000F2202FA03F335
:1024B000DB43FA681340FB607B68404A934213D0C9
:1024C0007B683F4A93420DD07B683E4A934207D0D7
:1024D0007B683D4A934201D1032306E0042304E0D4
:1024E000022302E0012300E000237A6A02F00302E3
:1024F00092009340FA681343FB602F497B6A9B0864
:102500000233FA6841F823203B685B6803F48013C8
:10251000002B06D02D4B9A682C49BB6913438B6066
:1025200006E02A4B9A68BB69DB43284913408B605D
:102530003B685B6803F40013002B06D0234BDA687A
:102540002249BB691343CB6006E0204BDA68BB69C4
:10255000DB431E491340CB603B685B6803F40033E8
:10256000002B06D0194B5A681849BB6913434B60BE
:1025700006E0164B5A68BB69DB43144913404B60B5
:102580003B685B6803F48033002B21D00F4B1A6843
:102590000E49BB6913430B6021E000BF00003210FD
:1025A0000000311000002210000021100000121065
:1025B000000011100010024000000140000801401E
:1025C000000C0140001001400014014000040140D3
:1025D0000B4B1A68BB69DB43094913400B607B6AEC
:1025E00001337B623B681A687B6A22FA03F3002B93
:1025F0007FF48EAE00BF00BF2C37BD4680BC704755
:102600000004014080B483B000AF78600B467B804B
:1026100013467B707B78002B03D07A887B681A6125
:1026200003E07B881A047B681A6100BF0C37BD4643
:1026300080BC704780B582B000AF0346FB80084B7A
:102640005A69FB881340002B06D0054AFB8853616A
:10265000FB88184600F006F800BF0837BD4680BD6D
:102660000004014080B483B000AF0346FB8000BF8C
:102670000C37BD4680BC704780B485B000AF786031
:102680000023FB607B68002B01D1012343E07B68C2
:102690001B681A46224B1344224AA2FB03231B0940
:1026A0009A007B681A647B681F4ADA637B6802229F
:1026B00083F821207B681B681B68FB60FB6823F4A0
:1026C0007F5323F03003FB607B685A687B689B680C
:1026D0001A437B68DB681A437B681B691A437B6873
:1026E0005B691A437B689B691A437B68DB69134308
:1026F000FA681343FB607B681B68FA681A607B68A2
:1027000000229A637B68012283F821207B680022E3
:1027100083F82020002318461437BD4680BC70473C
:10272000F8FFFDBFCDCCCCCC0000024080B586B018
:1027300000AFF860B9607A603B600023FB75FB680E
:1027400093F82030012B01D102234BE0FB680122DA
:1027500083F82020FB6893F82130DBB2012B3AD1BB
:10276000FB68022283F82120FB6800229A63FB6841
:102770001B681A68FB681B6822F001021A603B683C
:102780007A68B968F86800F0EBF9FB68DB6A002B3F
:1027900008D0FB681B681A68FB681B6842F00E02D1
:1027A0001A600FE0FB681B681A68FB681B6822F060
:1027B00004021A60FB681B681A68FB681B6842F019
:1027C0000A021A60FB681B681A68FB681B6842F003
:1027D00001021A6005E0FB68002283F82020022332
:1027E000FB75FB7D18461837BD4680BD80B485B0AB
:1027F00000AF78600023FB737B6893F82130DBB275
:10280000022B08D07B6804229A637B68002283F83D
:102810002020012320E07B681B681A687B681B6806
:1028200022F00E021A607B681B681A687B681B68BE
:1028300022F001021A607B681A6C7B68DB6B012155
:1028400001FA02F25A607B68012283F821207B683A
:10285000002283F82020FB7B18461437BD4680BC3D
:102860007047000080B584B000AF78600023FB7330
:102870007B6893F82130DBB2022B05D07B68042201
:102880009A630123FB7351E07B681B681A687B68BD
:102890001B6822F00E021A607B681B681A687B684E
:1028A0001B6822F001021A607B681B68224A93426F
:1028B00029D07B681B68214A934222D07B681B6821
:1028C0001F4A93421AD07B681B681E4A934212D05B
:1028D0007B681B681C4A93420AD07B681B681B4AB2
:1028E000934202D14FF480130EE04FF080730BE05F
:1028F0004FF4803308E04FF4805305E04FF48073C9
:1029000002E0102300E00123114A53607B6801229A
:1029100083F821207B68002283F820207B685B6B92
:10292000002B03D07B685B6B78689847FB7B18466D
:102930001037BD4680BD00BF080002401C000240A9
:102940003000024044000240580002406C00024047
:102950000000024080B584B000AF78607B68DB6B1C
:102960001B68FB607B681B681B68BB607B681B6C1B
:1029700004229A40FB681340002B4FD0BB6803F041
:102980000403002B4AD07B681B681B6803F02003FC
:10299000002B07D17B681B681A687B681B6822F0D4
:1029A00004021A607B681B68664A934229D07B68E0
:1029B0001B68654A934222D07B681B68634A934236
:1029C0001AD07B681B68624A934212D07B681B68EE
:1029D000604A93420AD07B681B685F4A934202D1E7
:1029E0004FF480030EE04FF080630BE04FF4802340
:1029F00008E04FF4804305E04FF4806302E0402399
:102A000000E00423554A53607B68DB6A002B00F02A
:102A100094807B68DB6A786898478EE07B681B6CE3
:102A200002229A40FB681340002B56D0BB6803F08B
:102A30000203002B51D07B681B681B6803F0200346
:102A4000002B0BD17B681B681A687B681B6822F01F
:102A50000A021A607B68012283F821207B681B68C8
:102A6000384A934229D07B681B68374A934222D068
:102A70007B681B68354A93421AD07B681B68344ACE
:102A8000934212D07B681B68324A93420AD07B681B
:102A90001B68314A934202D14FF400130EE04FF00D
:102AA00000730BE04FF4003308E04FF4005305E0EF
:102AB0004FF4007302E0202300E00223274A536012
:102AC0007B68002283F820207B689B6A002B34D02F
:102AD0007B689B6A786898472FE07B681B6C0822AC
:102AE0009A40FB681340002B28D0BB6803F0080312
:102AF000002B23D07B681B681A687B681B6822F058
:102B00000E021A607B681A6C7B68DB6B012101FA8C
:102B100002F25A607B6801229A637B68012283F883
:102B200021207B68002283F820207B681B6B002B10
:102B300004D07B681B6B7868984700BF00BF1037D4
:102B4000BD4680BD080002401C000240300002402B
:102B500044000240580002406C0002400000024065
:102B600080B485B000AFF860B9607A603B60FB6804
:102B70001A6CFB68DB6B012101FA02F25A60FB68F8
:102B80001B683A685A60FB685B68102B08D1FB68C9
:102B90001B687A689A60FB681B68BA68DA6007E0AD
:102BA000FB681B68BA689A60FB681B687A68DA6021
:102BB00000BF1437BD4680BC7047000080B485B0AC
:102BC00000AF78607B6803F00703FB600C4BDB68A9
:102BD000BB60BA684FF6FF031340BB60FB681A0284
:102BE000BB68134343F0BF6343F40033BB60044A44
:102BF000BB68D36000BF1437BD4680BC704700BFC0
:102C000000ED00E080B400AF044BDB681B0A03F06A
:102C100007031846BD4680BC704700BF00ED00E0CA
:102C200080B483B000AF0346FB7197F90730002BE7
:102C30000BDBFB7903F01F02064997F907305B09AC
:102C4000012000FA02F241F8232000BF0C37BD46F4
:102C500080BC704700E100E080B483B000AF034661
:102C60003960FB7197F90730002B0ADB3B68DAB259
:102C70000C4997F907301201D2B20B4483F80023B4
:102C80000AE03B68DAB20849FB7903F00F03043B22
:102C90001201D2B20B441A7600BF0C37BD4680BC7D
:102CA000704700BF00E100E000ED00E080B489B0B3
:102CB00000AFF860B9607A60FB6803F00703FB615E
:102CC000FB69C3F10703042B28BF0423BB61FB6925
:102CD0000433062B02D9FB69033B00E000237B6130
:102CE0004FF0FF32BB6902FA03F3DA43BB681A40C4
:102CF0007B699A404FF0FF317B6901FA03F3D943B6
:102D00007B680B40134318462437BD4680BC704790
:102D100080B582B000AF78607B68013BB3F1807F03
:102D200001D301230FE00A4A7B68013B53600F2166
:102D30004FF0FF30FFF790FF054B00229A60044BE5
:102D400007221A60002318460837BD4680BD00BF21
:102D500010E000E080B582B000AF78607868FFF7DF
:102D60002DFF00BF0837BD4680BD80B586B000AFDF
:102D70000346B9607A60FB7300237B61FFF742FF73
:102D800078617A68B9687869FFF790FF024697F929
:102D90000F3011461846FFF75FFF00BF1837BD46DA
:102DA00080BD80B582B000AF0346FB7197F9073054
:102DB0001846FFF735FF00BF0837BD4680BD80B518
:102DC00082B000AF78607868FFF7A2FF034618462C
:102DD0000837BD4680BD0000F0B587B000AFF86091
:102DE000B960C7E900230123FB750023BB750023ED
:102DF0007B752F4B1B7E012B01D1022354E02C4B02
:102E000001221A764CF2503000F0A8F80346FB7508
:102E1000FB7D002B44D1FB68012B02D101237B7584
:102E200007E0FB68022B02D102237B7501E004233B
:102E30007B750023BB752DE0BB7D5A00BB6802EBA0
:102E4000030CBB7D1901D7E90023C1F12006A1F1D4
:102E5000200022FA01F403FA06F6344323FA00F0C4
:102E6000044323FA01F5A3B21946604600F05AF86C
:102E70004CF2503000F072F80346FB750D4B1B69A5
:102E80000C4A23F001031361FB7D002B07D1BB7DAE
:102E90000133BB75BA7D7B7D9A42CDD300E000BF84
:102EA000034B00221A76FB7D18461C37BD46F0BD49
:102EB000980000200020024080B483B000AF0023BF
:102EC000FB710D4B1B6903F08003002B0DD00A4BE7
:102ED0000A4A5A60084B0A4A5A60074B1B6903F0BA
:102EE0008003002B01D00123FB71FB7918460C37BE
:102EF000BD4680BC704700BF0020024023016745EB
:102F0000AB89EFCD80B400AF054B1B69044A43F099
:102F10008003136100231846BD4680BC704700BF84
:102F20000020024080B483B000AF78600B467B8005
:102F3000084B0022DA61084B1B69074A43F0010382
:102F400013617B687A881A8000BF0C37BD4680BC4D
:102F5000704700BF980000200020024080B584B078
:102F600000AF7860FEF78CFDF86010E07B68B3F18D
:102F7000FF3F0CD07B68002B07D0FEF781FD024697
:102F8000FB68D31A7A689A4201D2032325E0154BD5
:102F9000DB6803F00103002BE8D1124BDB6803F080
:102FA0002003002B02D00F4B2022DA600D4BDB6890
:102FB00003F01003002B0BD10A4BDB6903F0010374
:102FC000002B05D1074BDB6803F00403002B03D073
:102FD00000F00AF8012300E0002318461037BD4630
:102FE00080BD00BF0020024080B483B000AF00234A
:102FF0007B60234BDB6803F01003002B09D0214BCF
:10300000DB6943F002031F4AD3617B6843F010037E
:103010007B601B4BDB6803F00403002B09D0194BCA
:10302000DB6943F00103174AD3617B6843F0040373
:103030007B60134BDB6903F00103002B0BD0114BBA
:10304000DB6943F004030F4AD3610D4BDB690C4A83
:1030500023F00103D3617B6840F20112934206D151
:10306000074BDB69064A23F00103D36102E0044AFF
:103070007B68D36000BF0C37BD4680BC704700BF83
:10308000002002409800002080B584B000AF786036
:1030900039600123FB730023BB602F4B1B7E012B88
:1030A00001D1022353E02C4B01221A767B681B6866
:1030B000022B16D14CF25030FFF750FF0346002B85
:1030C00041D1012000F04CF84CF25030FFF746FFA0
:1030D0000346FB73214B1B69204A23F00403136151
:1030E00031E04CF25030FFF739FF0346002B2AD174
:1030F0003B684FF0FF321A607B689B68BB6019E049
:10310000B86800F049F84CF25030FFF727FF03464B
:10311000FB73124B1B69114A23F002031361FB7B03
:10312000002B03D03B68BA681A600CE0BB6803F55B
:103130008063BB607B68DB689A027B689B68134492
:10314000BA689A42DCD3044B00221A76FB7B1846FD
:103150001037BD4680BD00BF98000020002002400F
:1031600080B483B000AF7860094B0022DA61094B6C
:103170001B69084A43F004031361064B1B69054AA7
:1031800043F04003136100BF0C37BD4680BC70475D
:10319000980000200020024080B483B000AF786027
:1031A0000B4B0022DA610B4B1B690A4A43F0020306
:1031B0001361084A7B685361064B1B69054A43F05B
:1031C0004003136100BF0C37BD4680BC704700BF91
:1031D000980000200020024080B582B000AF7860E7
:1031E0007B68002B01D1012341E07B6893F83D30DF
:1031F000DBB2002B06D17B68002283F83C20786884
:1032000003F042FE7B68022283F83D207B681A6847
:103210007B6804331946104600F05CFA7B68012293
:1032200083F846207B68012283F83E207B680122D8
:1032300083F83F207B68012283F840207B680122CD
:1032400083F841207B68012283F842207B680122B9
:1032500083F843207B68012283F844207B680122A5
:1032600083F845207B68012283F83D20002318461F
:103270000837BD4680BD000080B485B000AF7860DF
:103280007B6893F83D30DBB2012B01D001233AE09B
:103290007B68022283F83D207B681B68DA687B68C4
:1032A0001B6842F00102DA607B681B68184A93428F
:1032B0000ED07B681B68B3F1804F09D07B681B6818
:1032C000144A934204D07B681B68134A934211D17D
:1032D0007B681B689B6803F00703FB60FB68062B99
:1032E00010D07B681B681A687B681B6842F001027B
:1032F0001A6007E07B681B681A687B681B6842F0ED
:1033000001021A60002318461437BD4680BC70477E
:10331000002C0140000400400008004080B584B04B
:1033200000AF78607B681B68DB68FB607B681B68AC
:103330001B69BB60BB6803F00203002B20D0FB6855
:1033400003F00203002B1BD07B681B686FF00202A6
:103350001A617B6801221A777B681B689B6903F0FE
:103360000303002B03D0786800F098F905E0786833
:1033700000F08BF9786800F09AF97B6800221A77E0
:10338000BB6803F00403002B20D0FB6803F00403A8
:10339000002B1BD07B681B686FF004021A617B68EE
:1033A00002221A777B681B689B6903F44073002B29
:1033B00003D0786800F072F905E0786800F065F9EC
:1033C000786800F074F97B6800221A77BB6803F014
:1033D0000803002B20D0FB6803F00803002B1BD050
:1033E0007B681B686FF008021A617B6804221A77F9
:1033F0007B681B68DB6903F00303002B03D078684C
:1034000000F04CF905E0786800F03FF9786800F0CA
:103410004EF97B6800221A77BB6803F01003002B7B
:1034200020D0FB6803F01003002B1BD07B681B68C7
:103430006FF010021A617B6808221A777B681B689C
:10344000DB6903F44073002B03D0786800F026F9A1
:1034500005E0786800F019F9786800F028F97B68D1
:1034600000221A77BB6803F00103002B0CD0FB6825
:1034700003F00103002B07D07B681B686FF001028B
:103480001A61786802F0BEF9BB6803F08003002B74
:103490000CD0FB6803F08003002B07D07B681B680F
:1034A0006FF080021A61786800F07FFABB6803F061
:1034B0004003002B0CD0FB6803F04003002B07D027
:1034C0007B681B686FF040021A61786800F0F8F8BA
:1034D000BB6803F02003002B0CD0FB6803F0200333
:1034E000002B07D07B681B686FF020021A61786898
:1034F00000F052FA00BF1037BD4680BD80B584B0E1
:1035000000AF786039600023FB737B6893F83C3030
:10351000012B01D10223B4E07B68012283F83C2017
:103520007B68022283F83D207B681B689B68BB6038
:10353000BB6823F07703BB60BB6823F47F43BB60A9
:103540007B681B68BA689A603B681B68B3F5005FCC
:103550003ED0B3F5005F00F28780B3F5805F00F0E6
:103560008680B3F5805F7FD8702B1AD0702B7BD804
:10357000602B50D0602B77D8502B3CD0502B73D879
:10358000402B58D0402B6FD8302B64D0302B6BD8C9
:10359000202B60D0202B67D8002B5CD0102B5AD06A
:1035A00062E07B6818683B6899683B685A683B68CA
:1035B000DB6800F074F97B681B689B68BB60BB68C4
:1035C00043F07703BB607B681B68BA689A604FE082
:1035D0007B6818683B6899683B685A683B68DB6899
:1035E00000F05DF97B681B689A687B681B6842F491
:1035F00080429A603CE07B6818683B6859683B6889
:10360000DB681A4600F0D4F87B681B685021184626
:1036100000F02BF92CE07B6818683B6859683B6820
:10362000DB681A4600F0F2F87B681B6860211846D8
:1036300000F01BF91CE07B6818683B6859683B6820
:10364000DB681A4600F0B4F87B681B684021184616
:1036500000F00BF90CE07B681A683B681B681946A0
:10366000104600F002F903E00123FB7300E000BF05
:103670007B68012283F83D207B68002283F83C2090
:10368000FB7B18461037BD4680BD80B483B000AFC9
:10369000786000BF0C37BD4680BC704780B483B0F3
:1036A00000AF786000BF0C37BD4680BC704780B467
:1036B00083B000AF786000BF0C37BD4680BC704758
:1036C00080B483B000AF786000BF0C37BD4680BCCB
:1036D0007047000080B485B000AF786039607B68C7
:1036E0001B68FB607B682F4A93420BD07B68B3F169
:1036F000804F07D07B682C4A934203D07B682B4ACB
:10370000934208D1FB6823F07003FB603B685B6861
:10371000FA681343FB607B68224A93420BD07B68B4
:10372000B3F1804F07D07B681F4A934203D07B6878
:103730001E4A934208D1FB6823F44073FB603B6848
:10374000DB68FA681343FB60FB6823F080023B6888
:103750005B691343FB607B68FA681A603B689A6890
:103760007B68DA623B681A687B689A627B680D4AFC
:10377000934203D13B681A697B681A637B68012214
:103780005A617B681B6903F00103002B05D07B683D
:103790001B6923F001027B681A6100BF1437BD4624
:1037A00080BC7047002C014000040040000800402D
:1037B00080B487B000AFF860B9607A60FB681B6ABC
:1037C0007B61FB681B6A23F00102FB681A62FB68DD
:1037D0009B693B613B6923F0F0033B617B681B0104
:1037E0003A6913433B617B6923F00A037B617A6981
:1037F000BB6813437B61FB683A699A61FB687A692D
:103800001A6200BF1C37BD4680BC704780B487B0C9
:1038100000AFF860B9607A60FB681B6A7B61FB6887
:103820001B6A23F01002FB681A62FB689B693B610C
:103830003B6923F470433B617B681B033A69134384
:103840003B617B6923F0A0037B61BB681B017A6944
:1038500013437B61FB683A699A61FB687A691A6273
:1038600000BF1C37BD4680BC704780B485B000AF38
:10387000786039607B689B68FB60FB6823F07003AD
:10388000FB603A68FB68134343F00703FB607B6807
:10389000FA689A6000BF1437BD4680BC704780B498
:1038A00087B000AFF860B9607A603B60FB689B68E6
:1038B0007B617B6923F47F437B613B681A027B68F1
:1038C0001A43BB6813437A6913437B61FB687A69C7
:1038D0009A6000BF1C37BD4680BC704780B485B07D
:1038E00000AF786039607B6893F83C30012B01D1E0
:1038F000022346E07B68012283F83C207B68022299
:1039000083F83D207B681B685B68FB607B681B68F5
:103910009B68BB60FB6823F07003FB603B681B681F
:10392000FA681343FB607B681B68FA685A607B681F
:103930001B68164A93420ED07B681B68B3F1804F18
:1039400009D07B681B68124A934204D07B681B68CD
:10395000104A93420CD1BB6823F08003BB603B68E4
:103960005B68BA681343BB607B681B68BA689A607F
:103970007B68012283F83D207B68002283F83C208D
:10398000002318461437BD4680BC7047002C014008
:10399000000400400008004080B483B000AF7860AD
:1039A00000BF0C37BD4680BC704780B483B000AF09
:1039B000786000BF0C37BD4680BC704780B582B0D0
:1039C00000AF78607B68002B01D1012342E07B6867
:1039D00093F84130DBB2002B06D17B68002283F8DC
:1039E0004020786803F09EFA7B68242283F8412007
:1039F0007B681B68DA687B681B6822F40052DA6017
:103A0000786800F0CFFF7B681B681A697B681B68C9
:103A100022F490421A617B681B685A697B681B68B4
:103A200022F02A025A617B681B68DA687B681B688F
:103A300042F40052DA607B6800225A647B682022DC
:103A400083F841207B68202283F842207B68002293
:103A50005A63002318460837BD4680BD80B58AB03A
:103A600002AFF860B9603B601346FB8000237B61C6
:103A7000FB6893F84130DBB2202B75D1BB68002B7B
:103A800002D0FB88002B01D101236EE0FB680022ED
:103A90005A64FB68212283F84120FDF7F1FF786129
:103AA000FB68FA889A84FB68FA88DA84FB689B686A
:103AB000B3F5805F08D1FB681B69002B04D100239C
:103AC000FB61BB68BB6103E0BB68FB610023BB61BA
:103AD0002EE03B6800937B6900228021F86800F0AB
:103AE000ACFC0346002B05D0FB68202283F8412064
:103AF00003233AE0FB69002B0BD1BB691B881A46F4
:103B0000FB681B68C2F308025A60BB690233BB61E1
:103B100007E0FB691A78FB681B685A60FB69013390
:103B2000FB61FB68DB8C9BB2013B9AB2FB68DA84D9
:103B3000FB68DB8C9BB2002BCBD13B6800937B698D
:103B400000224021F86800F078FC0346002B05D0E5
:103B5000FB68202283F84120032306E0FB68202233
:103B600083F84120002300E0022318462037BD4699
:103B700080BD80B584B000AFF860B9601346FB80AB
:103B8000FB6893F84230DBB2202B12D1BB68002BCC
:103B900002D0FB88002B01D101230BE0FB6800223F
:103BA0001A63FB881A46B968F86800F09FFC034660
:103BB00000E0022318461037BD4680BD80B590B0A6
:103BC00000AF78600023FB637B681B685B6903F0D0
:103BD0008003002B14BF01230023DBB2FB637B684F
:103BE00093F84130DBB2212B28D1FB6B002B25D081
:103BF0007B681B6814337B627B6A53E8003F3B623F
:103C00003B6A23F08003BB637B681B681433BA6B89
:103C10003A63FB62F96A3A6B41E80023BB62BB6A14
:103C2000002BE5D17B689B6B002B04D07B689B6BE2
:103C30001846FEF7DBFD786800F0F2FC7B681B6835
:103C40005B6903F04003002B14BF01230023DBB2A8
:103C5000FB637B6893F84230DBB2222B28D1FB6BED
:103C6000002B25D07B681B6814333B613B6953E80C
:103C7000003FFB60FB6823F040037B637B681B68AD
:103C800014337A6BFA61BB61B969FA6941E80023C0
:103C90007B617B69002BE5D17B68DB6B002B04D05B
:103CA0007B68DB6B1846FEF7A1FD786800F0DFFC4F
:103CB000002318464037BD4680BD000080B5BAB02D
:103CC00000AF78607B681B681B68C7F8E4307B68CE
:103CD0001B68DB68C7F8E0307B681B685B69C7F866
:103CE000DC300023C7F8D8300023C7F8D430D7F829
:103CF000E43003F00F03C7F8D830D7F8D830002BE2
:103D00000FD1D7F8E43003F02003002B09D0D7F807
:103D1000E03003F02003002B03D0786800F084FD2E
:103D20005BE2D7F8D830002B00F0DE80D7F8DC302B
:103D300003F00103002B06D1D7F8E03003F49073B1
:103D4000002B00F0D180D7F8E43003F00103002B02
:103D50000BD0D7F8E03003F48073002B05D07B68DC
:103D60005B6C43F001027B685A64D7F8E43003F0DF
:103D70000403002B0BD0D7F8DC3003F00103002B39
:103D800005D07B685B6C43F002027B685A64D7F80D
:103D9000E43003F00203002B0BD0D7F8DC3003F043
:103DA0000103002B05D07B685B6C43F004027B6849
:103DB0005A64D7F8E43003F00803002B11D0D7F889
:103DC000E03003F02003002B05D1D7F8DC3003F0FE
:103DD0000103002B05D07B685B6C43F008027B6815
:103DE0005A647B685B6C002B00F0F281D7F8E430FA
:103DF00003F02003002B08D0D7F8E03003F02003B5
:103E0000002B02D0786800F00FFD7B681B685B69AF
:103E100003F04003002B14BF01230023DBB2C7F8DB
:103E2000D4307B685B6C03F00803002B03D1D7F818
:103E3000D430002B4FD0786800F019FC7B681B68E9
:103E40005B6903F04003002B41D07B681B6814338F
:103E5000C7F89C30D7F89C3053E8003FC7F898303B
:103E6000D7F8983023F04003C7F8D0307B681B6840
:103E70001433D7F8D020C7F8A820C7F8A430D7F853
:103E8000A410D7F8A82041E80023C7F8A030D7F83D
:103E9000A030002BD9D17B68DB6B002B13D07B6863
:103EA000DB6B7E4A5A637B68DB6B1846FEF7DAFCF5
:103EB0000346002B16D07B68DB6B5B6B7A68D26B9A
:103EC000104698470EE0786800F0A5F90AE0786897
:103ED00000F0A1F906E0786800F09DF97B68002207
:103EE0005A6475E100BF73E17B681B6B012B40F0E6
:103EF0004F81D7F8E43003F01003002B00F0488125
:103F0000D7F8E03003F01003002B00F041810023CC
:103F1000BB607B681B681B68BB607B681B685B6859
:103F2000BB60BB687B681B685B6903F04003002BC8
:103F300000F0B6807B68DB6B1B685B68A7F8BE305F
:103F4000B7F8BE30002B00F045817B689B8DB7F839
:103F5000BE209A4280F03E817B68B7F8BE20DA85A9
:103F60007B68DB6B9B69202B00F088807B681B687B
:103F70000C33C7F88830D7F8883053E8003FC7F8CB
:103F80008430D7F8843023F48073C7F8B8307B6866
:103F90001B680C33D7F8B820C7F89420C7F89030C6
:103FA000D7F89010D7F8942041E80023C7F88C3058
:103FB000D7F88C30002BD9D17B681B6814337B6712
:103FC0007B6F53E8003F3B673B6F23F00103C7F86B
:103FD000B4307B681B681433D7F8B420C7F880204E
:103FE000FB67F96FD7F8802041E80023BB67BB6F00
:103FF000002BE1D17B681B6814333B663B6E53E8B2
:10400000003FFB65FB6D23F04003C7F8B0307B68D1
:104010001B681433D7F8B020FA66BB66B96EFA6E27
:1040200041E800237B667B6E002BE3D17B68202276
:1040300083F842207B6800221A637B681B680C337C
:10404000FB64FB6C53E8003FBB64BB6C23F01003C4
:10405000C7F8AC307B681B680C33D7F8AC20BA6566
:104060007B65796DBA6D41E800233B653B6D002BA4
:10407000E3D17B68DB6B1846FEF7B8FB7B68022256
:104080005A637B689A8D7B68DB8D9BB2D31A9BB297
:104090001946786800F0C8F89CE000BF3347000874
:1040A0007B689A8D7B68DB8D9BB2D31AA7F8CE30E4
:1040B0007B68DB8D9BB2002B00F08E80B7F8CE3092
:1040C000002B00F089807B681B680C33BB63BB6BE3
:1040D00053E8003F7B637B6B23F49073C7F8C830D1
:1040E0007B681B680C33D7F8C8207A643B64396C52
:1040F0007A6C41E80023FB63FB6B002BE3D17B6808
:104100001B6814337B627B6A53E8003F3B623B6A67
:1041100023F00103C7F8C4307B681B681433D7F859
:10412000C4203A63FB62F96A3A6B41E80023BB6240
:10413000BB6A002BE3D17B68202283F842207B6896
:1041400000221A637B681B680C333B613B6953E8B0
:10415000003FFB60FB6823F01003C7F8C0307B68AA
:104160001B680C33D7F8C020FA61BB61B969FA69E2
:1041700041E800237B617B69002BE3D17B6802224D
:104180005A63B7F8CE301946786800F04DF823E04E
:10419000D7F8E43003F08003002B09D0D7F8E030E3
:1041A00003F08003002B03D0786800F0D6FA14E007
:1041B000D7F8E43003F04003002B0ED0D7F8E030FE
:1041C00003F04003002B08D0786800F015FB04E0F2
:1041D00000BF02E000BF00E000BFE837BD4680BD81
:1041E00080B483B000AF786000BF0C37BD4680BCA0
:1041F000704780B483B000AF786000BF0C37BD4615
:1042000080BC704780B483B000AF786000BF0C37CB
:10421000BD4680BC704780B483B000AF786000BFFB
:104220000C37BD4680BC704780B483B000AF786067
:104230000B467B8000BF0C37BD4680BC704780B505
:104240009CB000AF78607B685B6AFB667B681B682C
:104250001B6803F02003002B72D1FB6E0022DA856D
:10426000FB6E1B680C33FB64FB6C53E8003FBB64C4
:10427000BB6C23F48073BB66FB6E1B680C33BA6E99
:10428000BA657B65796DBA6D41E800233B653B6D8E
:10429000002BE5D1FB6E1B681433BB63BB6B53E88B
:1042A000003F7B637B6B23F001037B66FB6E1B6827
:1042B00014337A6E7A643B64396C7A6C41E800237B
:1042C000FB63FB6B002BE5D1FB6E1B6814337B6239
:1042D0007B6A53E8003F3B623B6A23F040033B6646
:1042E000FB6E1B6814333A6E3A63FB62F96A3A6BF1
:1042F00041E80023BB62BB6A002BE5D1FB6E2022A4
:1043000083F84220FB6E1B6B012B19D1FB6E1B68DF
:104310000C333B613B6953E8003FFB60FB6823F0D3
:104320001003FB65FB6E1B680C33FA6DFA61BB6111
:10433000B969FA6941E800237B617B69002BE5D10B
:10434000FB6E00225A63FB6E1B6B012B06D1FB6ECA
:104350009B8D1946F86EFFF767FF02E0F86EFFF7D6
:1043600048FF00BF7037BD4680BD80B584B000AF48
:1043700078607B685B6AFB60FB6801225A63FB68BC
:104380001B6B012B08D1FB689B8D5B089BB2194608
:10439000F868FFF749FF02E0F868FFF733FF00BF56
:1043A0001037BD4680BD80B584B000AF7860002373
:1043B000FB607B685B6ABB60BB681B685B6903F082
:1043C0008003002B14BF01230023DBB2FB60BB681A
:1043D00093F84130DBB2212B08D1FB68002B05D0CC
:1043E000BB680022DA84B86800F01AF9BB681B6861
:1043F0005B6903F04003002B14BF01230023DBB2F1
:10440000FB60BB6893F84230DBB2222B08D1FB681B
:10441000002B05D0BB680022DA85B86800F027F9C8
:10442000BB685B6C43F01002BB685A64B868FFF766
:10443000F2FE00BF1037BD4680BD80B586B000AF2C
:10444000F860B9603B601346FB713BE03B6AB3F137
:10445000FF3F37D0FDF714FB02463B68D31A3A6A98
:104460009A4202D33B6A002B01D103233AE0FB6856
:104470001B68DB6803F00403002B23D0BB68802B90
:1044800020D0BB68402B1DD0FB681B681B6803F065
:104490000803082B16D100237B61FB681B681B688F
:1044A0007B61FB681B685B687B617B69F86800F077
:1044B000DEF8FB6808225A64FB68002283F840207B
:1044C00001230FE0FB681B681A68BB681340BA68D9
:1044D0009A420CBF01230023DBB21A46FB799A42B1
:1044E000B4D0002318461837BD4680BD80B598B0BB
:1044F00000AFF860B9601346FB80BA68FB689A6247
:10450000FB68FA889A85FB6800225A64FB682222BD
:1045100083F84220FB68DB6B3E4A9A62FB68DB6BE8
:104520003D4ADA62FB68DB6B3C4A1A63FB68DB6B73
:1045300000225A6307F10803FB65FB68D86BFB6830
:104540001B6804331946FB6D1A68FB88FEF7EEF80A
:1045500000233B61FB681B681B683B61FB681B68B1
:104560005B683B613B69FB681B69002B19D0FB68EA
:104570001B680C333B643B6C53E8003FFB63FB6BF5
:1045800043F48073BB65FB681B680C33BA6DFA6437
:10459000BB64B96CFA6C41E800237B647B6C002B34
:1045A000E5D1FB681B681433FB62FB6A53E8003FEC
:1045B000BB62BB6A43F001037B65FB681B68143375
:1045C0007A6DBA637B63796BBA6B41E800233B6316
:1045D0003B6B002BE5D1FB681B681433BB61BB69E7
:1045E00053E8003F7B617B6943F040033B65FB6818
:1045F0001B6814333A6D7A623B62396A7A6A41E821
:104600000023FB61FB69002BE5D1002318466037CE
:10461000BD4680BD3F4200086B430008A743000829
:1046200080B489B000AF78607B681B680C33FB6096
:10463000FB6853E8003FBB60BB6823F0C003FB612D
:104640007B681B680C33FA69BA617B617969BA6966
:1046500041E800233B613B69002BE5D17B682022C8
:1046600083F8412000BF2437BD4680BC704780B42A
:1046700095B000AF78607B681B680C337B637B6B05
:1046800053E8003F3B633B6B23F49073FB647B6810
:104690001B680C33FA6C3A64FB63F96B3A6C41E8C3
:1046A0000023BB63BB6B002BE5D17B681B68143315
:1046B0003B623B6A53E8003FFB61FB6923F0010367
:1046C000BB647B681B681433BA6CFA62BB62B96A5C
:1046D000FA6A41E800237B627B6A002BE5D17B68A4
:1046E0001B6B012B19D17B681B680C33FB60FB68CB
:1046F00053E8003FBB60BB6823F010037B647B681A
:104700001B680C337A6CBA617B617969BA6941E8DC
:1047100000233B613B69002BE5D17B68202283F8B5
:1047200042207B6800221A6300BF5437BD4680BC1C
:10473000704780B584B000AF78607B685B6AFB60CF
:10474000FB680022DA85FB680022DA84F868FFF74C
:1047500062FD00BF1037BD4680BD80B485B000AF9C
:1047600078607B6893F84130DBB2212B3ED17B68C7
:104770009B68B3F5805F14D17B681B69002B10D157
:104780007B681B6AFB60FB681B881A467B681B689A
:10479000C2F308025A607B681B6A9A1C7B681A6223
:1047A00008E07B681B6A591C7A6811621A787B687A
:1047B0001B685A607B68DB8C9BB2013B9BB27A68BA
:1047C0001946D184002B0FD17B681B68DA687B689F
:1047D0001B6822F08002DA607B681B68DA687B68FD
:1047E0001B6842F04002DA60002300E00223184612
:1047F0001437BD4680BC704780B582B000AF78608A
:104800007B681B68DA687B681B6822F04002DA600C
:104810007B68202283F841207868FFF7E1FC0023C1
:1048200018460837BD4680BD80B58CB000AF7860B3
:104830007B6893F84230DBB2222B40F0AE807B687D
:104840009B68B3F5805F17D17B681B69002B13D180
:104850000023FB627B689B6ABB627B681B685B68AA
:104860009BB2C3F308039AB2BB6A1A807B689B6A47
:104870009A1C7B689A6226E07B689B6AFB62002335
:10488000BB627B689B68B3F5805F07D07B689B68E1
:10489000002B0AD17B681B69002B06D17B681B6843
:1048A0005B68DAB2FB6A1A7008E07B681B685B68B9
:1048B000DBB203F07F03DAB2FB6A1A707B689B6A93
:1048C0005A1C7B689A627B68DB8D9BB2013B9BB272
:1048D0007A681946D185002B5DD17B681B68DA6840
:1048E0007B681B6822F02002DA607B681B68DA684C
:1048F0007B681B6822F48072DA607B681B685A69E7
:104900007B681B6822F001025A617B68202283F8D1
:1049100042207B6800225A637B681B6B012B35D1D8
:104920007B6800221A637B681B680C337B617B69A0
:1049300053E8003F3B613B6923F010037B627B68D7
:104940001B680C337A6A3A62FB61F9693A6A41E89A
:104950000023BB61BB69002BE5D17B681B681B682A
:1049600003F01003102B0AD10023FB607B681B6847
:104970001B68FB607B681B685B68FB60FB687B688F
:104980009B8D19467868FFF74FFC02E07868FFF7C7
:1049900030FC002302E0002300E0022318463037F9
:1049A000BD4680BD80B584B000AF78607B681B6871
:1049B0001B6923F440517B68DA687B681B680A43F3
:1049C0001A617B689A687B681B691A437B685B691C
:1049D0001343BB607B681B68DB6823F4B05323F090
:1049E0000C037A681268B9680B43D3607B681B6854
:1049F0005B6923F440717B689A697B681B680A4392
:104A00005A617B681B682C4A934203D1FDF744FC32
:104A1000F86002E0FDF72CFCF860FA6813469B0092
:104A200013449A001A447B685B689B00B2FBF3F363
:104A3000224AA2FB03235B091901FA6813469B0073
:104A400013449A001A447B685B689B00B2FBF3F244
:104A50001A4BA3FB02035B09642000FB03F3D31A88
:104A60001B013233154AA2FB03235B0903F0F00359
:104A70001944FA6813469B0013449A001A447B6851
:104A80005B689B00B2FBF3F20C4BA3FB02035B09D8
:104A9000642000FB03F3D31A1B013233074AA2FB45
:104AA00003235B0903F00F027B681B680A449A60CA
:104AB00000BF1037BD4680BD003801401F85EB5157
:104AC00080B582B000AF0346FB71104B1B781846CF
:104AD000FA790F4903465B0003445B00134451F825
:104AE0002330A3F500031846FCF70AF803464FF0FD
:104AF00050511846FCF758F8034606491846FCF78B
:104B000053F8034618460837BD4680BD9102002081
:104B10009402002000401C45B0B584B000AF78601E
:104B20000023FB600C4B5B78DBB2002B18D1002319
:104B3000FB600BE0FB689B007A6813441A68074926
:104B4000FB6841F82320FB680133FB60FB68052B01
:104B5000F0DD00F04FBE00BF1C010020BC000020B3
:104B6000BB4B5B78DBB2012B40F00A84B94B1A686F
:104B70007B681B6819461046FCF716F80346184672
:104B8000FBF74AFCB0A3D3E90023FBF7C7FD0246BD
:104B90000B4614461D46AF4B5A687B6804331B68AE
:104BA00019461046FCF700F803461846FBF734FC9C
:104BB000A5A3D3E90023FBF7B1FD02460B4620462F
:104BC0002946FBF7CBFA02460B4614461D46A14B7D
:104BD0009A687B6808331B6819461046FBF7E4FFA8
:104BE00003461846FBF718FC97A3D3E90023FBF70D
:104BF00095FD02460B4620462946FBF7AFFA0246D2
:104C00000B4614461D46934BDA687B680C331B68D1
:104C100019461046FBF7C8FF03461846FBF7FCFB96
:104C200089A3D3E90023FBF779FD02460B46204612
:104C30002946FBF793FA02460B4614461D46854B60
:104C40001A697B6810331B6819461046FBF7ACFFE6
:104C500003461846FBF7E0FB7BA3D3E90023FBF7F1
:104C60005DFD02460B4620462946FBF777FA0246D1
:104C70000B4614461D46774B5A697B6814331B68F4
:104C800019461046FBF790FF03461846FBF7C4FB96
:104C90006DA3D3E90023FBF741FD02460B462046F6
:104CA0002946FBF75BFA02460B4610461946FBF70E
:104CB0001DFE0346684A1360664B9A697B681B6851
:104CC00019461046FBF770FF03461846FBF7A4FB96
:104CD0005DA3D3E90023FBF721FD02460B461446F2
:104CE0001D465C4BDA697B6804331B681946104625
:104CF000FBF75AFF03461846FBF78EFB52A3D3E996
:104D00000023FBF70BFD02460B4620462946FBF726
:104D100025FA02460B4614461D464E4B1A6A7B681E
:104D200008331B6819461046FBF73EFF034618463A
:104D3000FBF772FB44A3D3E90023FBF7EFFC024629
:104D40000B4620462946FBF709FA02460B46144655
:104D50001D46404B5A6A7B680C331B681946104647
:104D6000FBF722FF03461846FBF756FB36A3D3E9B1
:104D70000023FBF7D3FC02460B4620462946FBF7EF
:104D8000EDF902460B4614461D46324B9A6A7B6883
:104D900010331B6819461046FBF706FF03461846FA
:104DA000FBF73AFB28A3D3E90023FBF7B7FC024645
:104DB0000B4620462946FBF7D1F902460B4614461E
:104DC0001D46244BDA6A7B6814331B68194610466B
:104DD000FBF7EAFE03461846FBF71EFB1AA3D3E9CE
:104DE0000023FBF79BFC02460B4620462946FBF7B7
:104DF000B5F902460B4610461946FBF777FD034608
:104E0000154A5360134B1A6B7B681B681946104692
:104E1000FBF7CAFE03461846FBF7FEFA0AA3D3E9DE
:104E20000023FBF77BFC02460B4614461D46094B4C
:104E30005A6B7B6804331B6819461046FBF7B4FEB7
:104E400003460BE0AFF300809A9999999999234012
:104E50001C01002030010020BC0000201846FBF798
:104E6000DBFABFA3D3E90023FBF758FC02460B464D
:104E700020462946FBF772F902460B4614461D46AA
:104E8000B94B9A6B7B6808331B6819461046FBF7D1
:104E90008BFE03461846FBF7BFFAB1A3D3E9002304
:104EA000FBF73CFC02460B4620462946FBF756F929
:104EB00002460B4614461D46AB4BDA6B7B680C333F
:104EC0001B6819461046FBF76FFE03461846FBF7B2
:104ED000A3FAA3A3D3E90023FBF720FC02460B4669
:104EE00020462946FBF73AF902460B4614461D4672
:104EF0009D4B1A6C7B6810331B6819461046FBF7F4
:104F000053FE03461846FBF787FA95A3D3E900231F
:104F1000FBF704FC02460B4620462946FBF71EF928
:104F200002460B4614461D468F4B5A6C7B68143361
:104F30001B6819461046FBF737FE03461846FBF779
:104F40006BFA87A3D3E90023FBF7E8FB02460B4685
:104F500020462946FBF702F902460B461046194641
:104F6000FBF7C4FC0346814A93607F4B9A6C7B68D5
:104F70001B6819461046FBF717FE03461846FBF759
:104F80004BFA77A3D3E90023FBF7C8FB02460B4695
:104F900014461D46744BDA6C7B6804331B68194653
:104FA0001046FBF701FE03461846FBF735FA6CA3E3
:104FB000D3E90023FBF7B2FB02460B462046294605
:104FC000FBF7CCF802460B4614461D46664B1A6D9D
:104FD0007B6808331B6819461046FBF7E5FD03465E
:104FE0001846FBF719FA5EA3D3E90023FBF796FBFB
:104FF00002460B4620462946FBF7B0F802460B4610
:1050000014461D46584B5A6D7B680C331B68194675
:105010001046FBF7C9FD03461846FBF7FDF950A300
:10502000D3E90023FBF77AFB02460B4620462946CC
:10503000FBF794F802460B4614461D464A4B9A6D00
:105040007B6810331B6819461046FBF7ADFD03461D
:105050001846FBF7E1F942A3D3E90023FBF75EFB17
:1050600002460B4620462946FBF778F802460B46D7
:1050700014461D463C4BDA6D7B6814331B68194699
:105080001046FBF791FD03461846FBF7C5F934A31C
:10509000D3E90023FBF742FB02460B462046294694
:1050A000FBF75CF802460B4610461946FBF71EFC60
:1050B00003462E4AD3602C4B1A6E7B681B68194638
:1050C0001046FBF771FD03461846FBF7A5F924A32C
:1050D000D3E90023FBF722FB02460B4614461D468C
:1050E000214B5A6E7B6804331B6819461046FBF748
:1050F0005BFD03461846FBF78FF919A3D3E900239C
:10510000FBF70CFB02460B4620462946FBF726F828
:1051100002460B4614461D46134B9A6E7B680833B5
:105120001B6819461046FBF73FFD03461846FBF780
:1051300073F90BA3D3E90023FBF7F0FA02460B4601
:1051400020462946FBF70AF802460B4614461D4640
:10515000054BDA6E7B680C330AE000BFAFF30080CA
:105160009A9999999999234030010020BC00002018
:105170001B6819461046FBF717FD03461846FBF758
:105180004BF97BA3D3E90023FBF7C8FA02460B4691
:1051900020462946FAF7E2FF02460B4614461D4612
:1051A000754B1A6F7B6810331B6819461046FBF766
:1051B000FBFC03461846FBF72FF96DA3D3E9002348
:1051C000FBF7ACFA02460B4620462946FAF7C6FF23
:1051D00002460B4614461D46674B5A6F7B681433D4
:1051E0001B6819461046FBF7DFFC03461846FBF721
:1051F00013F95FA3D3E90023FBF790FA02460B46AD
:1052000020462946FAF7AAFF02460B4610461946E1
:10521000FBF76CFB0346594A1361574B9A6F7B6847
:105220001B6819461046FBF7BFFC03461846FBF700
:10523000F3F84FA3D3E90023FBF770FA02460B46BD
:1052400014461D464C4BDA6F7B6804331B681946C5
:105250001046FBF7A9FC03461846FBF7DDF844A30C
:10526000D3E90023FBF75AFA02460B4620462946AB
:10527000FAF774FF02460B4614461D463E4BD3F820
:1052800080207B6808331B6819461046FBF78CFCAE
:1052900003461846FBF7C0F835A3D3E90023FBF714
:1052A0003DFA02460B4620462946FAF757FF0246CA
:1052B0000B4614461D46304BD3F884207B680C33D4
:1052C0001B6819461046FBF76FFC03461846FBF7B0
:1052D000A3F827A3D3E90023FBF720FA02460B46E5
:1052E00020462946FAF73AFF02460B4614461D4669
:1052F000214BD3F888207B6810331B681946104671
:10530000FBF752FC03461846FBF786F818A3D3E9CF
:105310000023FBF703FA02460B4620462946FAF71C
:105320001DFF02460B4614461D46134BD3F88C2036
:105330007B6814331B6819461046FBF735FC03469F
:105340001846FBF769F80AA3D3E90023FBF7E6F94F
:1053500002460B4620462946FAF700FF02460B4656
:1053600010461946FBF7C2FA0346044A536141E26C
:105370009A9999999999234030010020BC00002006
:10538000944B5B78DBB2022B40F03482924B1A686C
:105390007B681B6819461046FBF706FC03461C4653
:1053A0008D4B5A687B6804331B6819461046FBF71F
:1053B000FBFB034619462046FBF7EEFA03461C4664
:1053C000854B9A687B6808331B6819461046FBF7C3
:1053D000EBFB034619462046FBF7DEFA03461C4664
:1053E0007D4BDA687B680C331B6819461046FBF767
:1053F000DBFB034619462046FBF7CEFA03461C4664
:10540000754B1A697B6810331B6819461046FBF709
:10541000CBFB034619462046FBF7BEFA03461C4663
:105420006D4B5A697B6814331B6819461046FBF7AD
:10543000BBFB034619462046FBF7AEFA03461A4665
:10544000664B1A60644B9A697B681B681946104664
:10545000FBF7AAFB03461C465F4BDA697B68043303
:105460001B6819461046FBF79FFB0346194620466A
:10547000FBF792FA03461C46574B1A6A7B680833BF
:105480001B6819461046FBF78FFB0346194620465A
:10549000FBF782FA03461C464F4B5A6A7B680C3373
:1054A0001B6819461046FBF77FFB0346194620464A
:1054B000FBF772FA03461C46474B9A6A7B68103327
:1054C0001B6819461046FBF76FFB0346194620463A
:1054D000FBF762FA03461C463F4BDA6A7B681433DB
:1054E0001B6819461046FBF75FFB0346194620462A
:1054F000FBF752FA03461A46384B5A60364B1A6B82
:105500007B681B6819461046FBF74EFB03461C469A
:10551000314B5A6B7B6804331B6819461046FBF706
:1055200043FB034619462046FBF736FA03461C4662
:10553000294B9A6B7B6808331B6819461046FBF7AA
:1055400033FB034619462046FBF726FA03461C4662
:10555000214BDA6B7B680C331B6819461046FBF74E
:1055600023FB034619462046FBF716FA03461C4662
:10557000194B1A6C7B6810331B6819461046FBF7F1
:1055800013FB034619462046FBF706FA03461C4662
:10559000114B5A6C7B6814331B6819461046FBF795
:1055A00003FB034619462046FBF7F6F903461A4665
:1055B0000A4B9A60084B9A6C7B681B681946104628
:1055C000FBF7F2FA03461C46034BDA6C7B680433A4
:1055D00006E000BF1C01002030010020BC000020BC
:1055E0001B6819461046FBF7DFFA034619462046AA
:1055F000FBF7D2F903461C46804B1A6D7B680833D3
:105600001B6819461046FBF7CFFA03461946204699
:10561000FBF7C2F903461C46784B5A6D7B680C3386
:105620001B6819461046FBF7BFFA03461946204689
:10563000FBF7B2F903461C46704B9A6D7B6810333A
:105640001B6819461046FBF7AFFA03461946204679
:10565000FBF7A2F903461C46684BDA6D7B681433EE
:105660001B6819461046FBF79FFA03461946204669
:10567000FBF792F903461A46614BDA605F4B1A6EEC
:105680007B681B6819461046FBF78EFA03461C46DA
:105690005A4B5A6E7B6804331B6819461046FBF759
:1056A00083FA034619462046FBF776F903461C4663
:1056B000524B9A6E7B6808331B6819461046FBF7FD
:1056C00073FA034619462046FBF766F903461C4663
:1056D0004A4BDA6E7B680C331B6819461046FBF7A1
:1056E00063FA034619462046FBF756F903461C4663
:1056F000424B1A6F7B6810331B6819461046FBF744
:1057000053FA034619462046FBF746F903461C4662
:105710003A4B5A6F7B6814331B6819461046FBF7E7
:1057200043FA034619462046FBF736F903461A4664
:10573000334B1A61314B9A6F7B681B6819461046D0
:10574000FBF732FA03461C462C4BDA6F7B680433B6
:105750001B6819461046FBF727FA034619462046F0
:10576000FBF71AF903461C46244BD3F880207B68CC
:1057700008331B6819461046FBF716FA034619460C
:105780002046FBF709F903461C461C4BD3F884203E
:105790007B680C331B6819461046FBF705FA034675
:1057A00019462046FBF7F8F803461C46134BD3F87E
:1057B00088207B6810331B6819461046FBF7F4F904
:1057C000034619462046FBF7E7F803461C460B4BF9
:1057D000D3F88C207B6814331B6819461046FBF7FE
:1057E000E3F9034619462046FBF7D6F803461A4666
:1057F000034B5A6100BF1037BD46B0BD30010020D9
:10580000BC00002090B583B000AF78607B681B6857
:10581000B3F1804F40F08980464B1B680133454A05
:105820001360444B1968444BA3FB01235A081346E9
:105830005B001344CA1A002A77D100F0A7F9034687
:105840003E4A127814461846FBF7FEFA02463C49D7
:1058500023465B002344DB000B441A6000F096F9FA
:105860000346364A127814461846FBF7EDFA02460C
:10587000334923465B002344DB000B4404331A60A6
:1058800000F084F903462D4A127814461846FBF7B7
:10589000DBFA02462A4923465B002344DB000B4423
:1058A00008331A6000F072F90346244A127814464D
:1058B0001846FBF7C9FA0246214923465B002344F8
:1058C000DB000B440C331A6000F060F903461B4AFE
:1058D000127814461846FBF7B7FA024618492346D1
:1058E0005B002344DB000B4410331A6000F04EF9D8
:1058F0000346124A127814461846FBF7A5FA0246E8
:105900000F4923465B002344DB000B4414331A6029
:105910000A4B1B780133DAB2084B1A70074B1B781D
:105920003F2B02D9054B00221A7000BF0C37BD4631
:1059300090BD00BFB8000020ABAAAAAA9002002028
:105940009402002080B582B000AF78607868FBF7E1
:105950009BFA03469AB2642379680348FEF77EF8FF
:1059600000BF0837BD4680BD240B002080B584B041
:1059700000AF786039607868FBF786FA03469AB220
:10598000642379683D48FEF769F80023BB736CE037
:10599000BB7B3A6813441B787B730023FB737B7BD0
:1059A000632B18D97B7B364AA2FB03235B09DAB24F
:1059B000FB7B591CF9733032D2B210333B4403F8ED
:1059C000082C7B7B2E4AA2FB03125209642101FBA7
:1059D00002F29B1A7B737B7B092B19D97B7B294AAB
:1059E000A2FB0323DB08DAB2FB7B591CF9733032CC
:1059F000D2B210333B4403F8082C7A7B214BA3FB33
:105A00000213D9080B469B000B445B00D31A7B732F
:105A1000FB7B5A1CFA7319467B7B3033DAB201F1F7
:105A200010033B4403F8082CFB7B10333B4400225B
:105A300003F8082CFB7B9AB207F1080164230F4896
:105A4000FEF70CF8BB7B022B01D80F4900E00F4991
:105A5000BB7B022B01D8012200E00222642307480D
:105A6000FDF7FCFFBB7B0133BB73BB7B032B8FD9E3
:105A700000BF00BF1037BD4680BD00BF240B002013
:105A80001F85EB51CDCCCCCCA4B80008A8B8000839
:105A900080B584B000AF78600B46FB70FB781B09C3
:105AA000DBB21A46114B9B5C3B72FB7803F00F0391
:105AB0000E4AD35C7B720D23BB720A23FB72002358
:105AC0003B737868FBF7E0F903469AB26423796880
:105AD0000748FDF7C3FF07F10801642304220448C7
